:400000000080002011000000F5050000F505000080B500AF024A034B1B68136000F01CFBBC760040FA46004010B5054C237833B9044B13B10448AFF300800123237010BD0C
:400040004881FF1F000000004C210000084B10B51BB108490848AFF300800848036803B910BD074B002BFBD0BDE81040184700BF000000004C81FF1F4C210000C880FF1F28
:400080000000000080B588B000AF00F0D1FC01F08DF80023BB7700237B7700233B770023FB7700F0DDFC324801F01EF901F0E0F80346FB76FB7E582B1FD0582B0BDC432B8C
:4000C00015D0432B02DC002B1DD01DE0452B17D0532B0FD018E0652B12D0652B02DC632B05D011E0732B05D0782B06D00CE001237B7709E00123BB7706E00023BB7703E08F
:4001000001233B7700E000BF012000F0B9FC0346002BCBD000F0DAFC0346184600F014FD03467B617B7F002B02D1BB7F002B0CD03B1D7A690F49184601F0E4FB3B1D184632
:4001400001F0D2F800237B7711E03B7F002BADD0FA7F3B1D0849184601F0D4FB3B1D184601F0C2F8FB7F0133FB7700233B779DE750210000602100007421000080B582B054
:4001800000AF786039603A680021786801F0B1FB00BF0837BD4680BD80B584B000AFF860B9607A607A68B968F86801F097FB00BF1037BD4680BD00BF80B483B000AF0346F4
:4001C000FB71FEE780B487B000AF7860396000233B6100237B6127E07B699B007A6813441B68BB60BB68FB73BB6823F0FF03BB6014E03B695B003A6813441B781A46BB6822
:40020000134419463B695B003A6813445B780B703B6901333B61FB7B013BFB73FB7B002BE7D17B6901337B617B69122BD4D900BF1C37BD4680BC704780B582B000AF3F4B6B
:4002400000221A803E4B50221A703E4B19221A803D4B18221A7004223C493D48FFF79CFF3C4B02221A704FF0402308221A703A4B03221A70394B3A4A1278D2B21A70394BEF
:4002800008221A80384B41F251221A800023FB7019237B6014E0FB785B00DAB2334B1B78DBB203F00103DBB21343DBB203F00303FB704FF4F07001F0BBFA7B68013B7B6018
:4002C0007B68002B02D0FB78032BE4D17B68002B02D10320FFF770FF254B4FF480721A80234B07221A70234B00221A70224B48221A701F4B00221A70204B02221A70204BEA
:4003000004221A701F4A1F4B1B78DBB243F00303DBB213701C4A1C4B1B78DBB243F00103DBB21370194A194B1B78DBB263F07F03DBB2137000BF0837BD4680BD8040004093
:4003400082400040844000408640004028030048004100400043004000420040A14600400801004922420040204200402542004004400040064000400840004001400040FF
:400380000B400040A2430040A1430040A043004080B483B000AF0E4B1B78FB710D4AFB7903F00703DBB213700B4AFB791B09DBB213700A4B01221A70094B10221A70094B9D
:4003C00044221A7000BF0C37BD4680BC704700BFCF0100496E5800406F5800400D510040005B00407658004080B483B000AF0346FB71FB79012B0ED8FB79094A52F8233034
:40040000FA79074951F822201178FA790548825C0A43D2B21A7000BF0C37BD4680BC70478C2100009421000080B483B000AF0346FB71FB79012B10D8FB790A4A52F82330DA
:40044000FA79084951F822201178FA790648825CD243D2B20A40D2B21A7000BF0C37BD4680BC70478C2100009421000080B586B000AF72B64C4A4C4B1B78DBB243F00403F1
:40048000DBB213700023FB7513E0FA7D13465B0013445B00454A13443B613B691A683B699B889BB219461046FFF768FEFB7D0133FB75FB7D072BE8D90023FB751CE0FA7D6F
:4004C00013469B0013445B00394A1344FB60FB681B68BB60FB685B687B60FB681A7A5B7A1B0213437B807B881A467968B868FFF753FEFB7D0133FB75FB7D012BDFD92D494C
:400500004FF09040FFF75EFE2B4B0A221A702B4A2A4B1B78DBB243F00203DBB21370284A274B1B78DBB243F00203DBB21370254A244B1B78DBB243F04003DBB21370224AA0
:40054000214B1B78DBB243F01003DBB2137008221E491F48FFF720FE0A221E491E48FFF71BFE08221D491E48FFF716FE1D4A1D4B1B78DBB243F00803DBB213701A4B602261
:400580001A70FFF759FE184B80221A70174B01221A70FFF7FDFE0E220A491548FFF7FCFD00BF1837BD4680BDE846004098210000C82100004C000048835800400350014065
:4005C00013500140A0430040C24300400C0300480251004014030048C05100402003004812510040224300400048004004000840B043004080B500AF01F044F903461B68BD
:400600000C2B00D1FEE7FEE780B584B000AF78600F4B1A687B6813441A460E4BD31A802B09DC0B4B1B68FB60094B1A687B681344074A136007E001F025F902460C231360C4
:400640004FF0FF33FB60FB6818461037BD4680BDCC80FF1F9081FF1F80B586B000AF224B7B61224B3B61204B7B6135E03B691B68FB603B695B68BB603B699B683B6000239C
:400680007B600CE0FB681A68BB681A60BB680433BB60FB680433FB607B6804337B607A683B689A42EED13B69DB683B6000237B6008E0BB6800221A60BB680433BB607B68F3
:4006C00004337B607A683B689A42F2D13B6910333B617B69013B7B617B69002BC6D101F0D7F8FFF7CFFCFEE7010000003822000080B582B000AF184B184A1A60184A184BC4
:400700001B6843F40073136000237B600FE07B68032B04D8134A7B6852F8233000E0124B12497A6841F822307B6801337B607B682F2BECD90E4B1B78DAB20E4B1A700E4BB5
:400740000A4A1A60FFF792FE0C4B00221A6000BF0837BD4680BD00BF0CED00E00004FA0514ED00E000000000F50500000080FF1FBC760040C480FF1F08ED00E0C080FF1FD9
:4007800080B582B002AF414B01221A70404B00221A70102000F0B6FE102000F099FF07211D2001F01FF83B4B04221A703A4B00221A703A4B00221A70394A394B1B78DBB2F9
:4007C00043F01803DBB21370364B00221A70364B00221A70354B00221A70354B0A221A70344B00221A70344B00221A70334B12221A70334B13221A70324B00221A70324B6A
:4008000014221A700123009308234FF400424FF40041032000F0BCFB0223009310234FF4004249F2DA01002000F0B2FB0323009310234FF4004249F2DA01002000F0A8FBC6
:400840000423009310234FF4004249F2DA01002000F09EFB1D4A0D4B1B78DBB2013B1C499B000B449B7813701A4A084B1B78DBB2013B174931F823301380044B1B78DBB256
:40088000184600F07FF900BFBD4680BDD080FF1F6481FF1F96580040975800409E580040075B004093580040885B0040895B004080580040815800408358004088580040EF
:4008C000895800408D580040014E00400E4E00406C81FF1F0C4E004080B582B000AF00F0C6FF0346FB71444B1B78BB71434A434B1B78DBB243F00103DBB213703F4A3F4B7F
:400900001B78DBB243F01003DBB213703C4A3C4B1B78DBB243F00103DBB21370384A384B1B78DBB243F01003DBB21370354A354B1B78DBB243F00203DBB21370324A324BF2
:400940001B78DBB243F00203DBB213702F4A2F4B1B78DBB243F00303DBB21370032000F005FF284A274B1B78DBB223F00203DBB21370254A244B1B78DBB223F00203DBB2CD
:400980001370234A224B1B78DBB243F00603DBB21370204B7A221A701F4A1F4B1B78DBB243F00103DBB213701C4A1C4B1B78DBB243F00103DBB21370194A194B1B78DBB288
:4009C00043F00103DBB21370164A164B1B78DBB243F00103DBB21370134B4FF000521A60124B4FF000521A60FB79184600F043FF00BF0837BD4680BDD080FF1FAA430040DA
:400A0000BA430040F8460040F9460040915800407758004082580040A1430040B1430040A2430040B243004080E200E000E100E080B500AF084B1B78002B09D1074B1B78C1
:400A4000DBB2002B01D1FFF79BFE034B01221A70FFF742FF00BF80BD6681FF1F6781FF1F80B400AF054A054B1B78DBB243F00103DBB2137000BFBD4680BC7047004E0040F8
:400A800080B485B000AF0346FB710D4B1B78DBB2002B03D00B4B1B78FB7305E00A4B1B78DBB203F00103FB73FB7B012B02D0FB79002BEAD0FB7B18461437BD4680BC7047FB
:400AC0006581FF1F6481FF1F014E004080B483B000AF174B1B78DBB203F003037B717B79012B03D8134B1B88FB8011E0114B1B78DBB2FB80104B1B78DBB29BB21B029AB253
:400B0000FB881343FB807B79032B01D10B4B1B780B4B1B78DBB2002B02D00A4B00221A70B7F9063018460C37BD4680BC704700BF144E0040104E0040114E0040124E004055
:400B40006581FF1F6481FF1F80B485B000AF78600A4B1B687A68D31A7B607B684FF47A7202FB03F2064B1B6892FBF3F3FB81B7F90E3018461437BD4680BC70476881FF1FA1
:400B80008881FF1F80B582B000AF0346FB71C24B00221A70FB79012B65D1C04B38221A70BF4B04221A70BF4B06221A70BE4B00221A70BE4B00221A70BD4B0F221A70BD4B1A
:400BC00000221A70BC4B00221A70BC4B00221A70BB4B01221A70BB4B14221A70BA4B04221A70BA4B18221A70B94B00221A70B94B11221A70B84B12221A70B84B00221A700B
:400C0000B74B01221A70B74B11221A70B64B19221A70B64B97221A70442000F071FAB44B58221A70B34B00221A70B34B05221A70B24B02221A70B24B00221A70B14B0022AF
:400C40001A70002000F08CFBAF4B2A221A600121052000F099FB0121952000F07BFCAB491D2000F097FDFB79022B66D18B4B38221A708B4B04221A708A4B06221A708A4B61
:400C800000221A70894B00221A70894B3F221A70884B00221A70884B00221A70874B00221A70874B01221A70864B50221A70864B27221A70854B2C221A70854B00221A70B9
:400CC000844B55221A70844B5A221A70834B05221A70834B01221A70824B11221A70824B19221A70814B97221A70442000F008FA7F4B58221A707F4B00221A707E4B0522A0
:400D00001A707E4B02221A707D4B00221A707D4B00221A70002000F023FB7B4B4FF47A421A600121052000F02FFB0121252000F011FC77491D2000F02DFDFB79032B66D1A8
:400D4000564B38221A70564B04221A70554B06221A70554B00221A70544B00221A70544B3F221A70534B00221A70534B00221A70524B00221A70524B01221A70514B5022F5
:400D80001A70514B27221A70504B2C221A70504B00221A704F4B55221A704F4B5A221A704E4B05221A704E4B01221A704D4B11221A704D4B19221A704C4B97221A704420C5
:400DC00000F09EF94A4B58221A704A4B00221A70494B05221A70494B02221A70484B00221A70484B00221A70002000F0B9FA464B4FF47A421A600121052000F0C5FA0121A8
:400E0000252000F0A7FB43491D2000F0C3FCFB79042B40F0A880214B38221A70204B04221A70204B06221A701F4B00221A701F4B00221A701E4B3F221A701E4B00221A704B
:400E40001D4B00221A701D4B00221A701C4B01221A701C4B50221A701B4B27221A701B4B2C221A701A4B00221A701A4B55221A70194B5A221A70194B05221A70184B0122E0
:400E80001A70184B11221A70174B19221A70174B97221A7044203FE06581FF1F004E0040024E0040034E0040044E0040054E0040064E0040084E0040094E00400A4E004008
:400EC000144E0040845800408558004086580040875800408A5800408B5800408C5800408E5800408F580040905800409158004094580040955800409A5800409B58004015
:400F00009C5800409D5800408881FF1F7D110000891100009511000000F0F2F8144B58221A70144B00221A70134B05221A70134B02221A70124B00221A70124B00221A70DE
:400F4000002000F00DFA104B4FF47A421A600121052000F019FA0121252000F0FBFA0B491D2000F017FC00BF0837BD4680BD00BF94580040955800409A5800409B580040A1
:400F80009C5800409D5800408881FF1FA111000090B587B000AF0446084611461A462346FB710346BB800B467B801346BB7197F82830002B00F08B8097F82830042B00F236
:400FC0008680FB79013B092B4AD801A252F823F0F90F00006110000061100000F90F00006110000061100000131000002D1000006110000047100000BB790F2B04D9374B1C
:401000001B78DBB2FB752EE0354B1B78DBB2FB7529E0BB790F2B04D9324B1B78DBB2FB7521E0314B1B78DBB2FB751CE0BB790F2B04D92E4B1B78DBB2FB7514E02C4B1B7846
:40104000DBB2FB750FE0BB790F2B04D9294B1B78DBB2FB7507E0284B1B78DBB2FB7502E00023FB7500BFBA8897F917305B0113443B617B883A6902FB03F3FB60FB68DB0B72
:40108000BB82BB790D2B12D8BA8ABB79C3F10E0342FA03F3BB8297F82830013BBA790132D1B2164A9B0013440A469A7007E097F82830013B114A9B0013440F229A7097F818
:4010C0002830013B0D49BA8A21F8232002E0002000F040FB00BF1C37BD4690BD180100491C010049190100491D0100491A0100491E0100491B0100491F0100496C81FF1FA0
:4011000080B584B000AF0346FB7100F0B0FB0346FB73174A164B1B78DBB243F00303DBB21370144A134B1B78DBB243F00303DBB21370114AFB791370032000F017FB0C4A73
:401140000B4B1B78DBB223F00303DBB21370094A084B1B78DBB223F00303DBB21370FB7B184600F088FB00BF1037BD4680BD00BFF8460040F94600409258004080B400AF8B
:4011800000BFBD4680BC704780B400AF00BFBD4680BC704780B400AF00BFBD4680BC704780B400AF00BFBD4680BC704780B500AF064B1B78002B04D100F00AF8034B012287
:4011C0001A7000F025F800BF80BD00BF7C81FF1F80B400AF094B72221A70094B20221A70084B06221A70084B47221A70074B00221A7000BFBD4680BC704700BF8A65004021
:401200008B65004029650040396500408865004080B582B000AF00F02AFB0346FB71114A104B1B78DBB243F02003DBB213700E4A0D4B1B78DBB243F01003DBB213700B4A0E
:401240000A4B1B78DBB243F01003DBB2137000F067FAFB79184600F00EFB00BF0837BD4680BD00BF9A6500409B6500409865004080B483B000AF0023FB710C4B1B78BB7113
:40128000BB7903F02003002B09D0094B1B78FB71BB7903F01E03002B01D00023FB71FB7918460C37BD4680BC704700BF6B6500404A65004080B483B000AF0346FB7100BF67
:4012C000074B1B78DBB203F00403002BF8D1054AFB79137000BF0C37BD4680BC704700BF686500404865004080B584B000AF78600023FB810C4B1B78002B10D009E0FB89A6
:401300007A6813441B781846FFF7D4FFFB890133FB81FB897A6813441B78002BEFD100BF1037BD4680BD00BF7C81FF1F80B582B000AF0023FB7106E0FB791846FFF774F86C
:40134000FB790133FB71FB79012BF5D9034BFF221A7000BF0837BD4680BD00BFD180FF1F80B582B000AF0346FB71FFF7DFFFFB791846FFF739F8034AFB79137000BF0837AC
:40138000BD4680BDD180FF1F80B584B000AF03460A46FB8013467B7100F0CEF80346FB7300F0A4F80346BB81FA88BB899A4200F08880464B1B78DBB203F00103FB72FB7B6A
:4013C000002B20D1BB89002B02D0FB88002B1AD1BB89002B0BD13E4AFB8813803D4A3D4B1B78DBB223F04003DBB2137069E0394A384B1B78DBB243F04003DBB21370344A06
:40140000FB8813805DE0FB7A002B33D0324B00221A70324B01221A70314B00221A70314A304B1B78DBB203F07F03DBB21370294B1B78DBB203F00803002B02D0FB88002B63
:4014400018D1294ABB891380234B07221A7000BF214B1B78DBB203F00103002BF8D11B4A1A4B1B78DBB223F00103DBB213701A4B00221A70154B1B78DBB203F00103002B1E
:4014800013D0194AFB881380134A7B79002B01D0032300E00123137000BF0F4B1B78DBB203F00103002BF8D10BE0094AFB8813800649064B1B78DAB2FB7A1343DBB20B70CC
:4014C000FFE700BF1037BD4680BD00BFA24300408040004082400040014000401040004014400040084000400240004080B400AF034B1B889BB21846BD4680BC704700BFF7
:401500008040004080B483B000AF0346FB710949084B1B78DBB25AB297F9073023F007035BB213435BB2DBB20B7000BF0C37BD4680BC70478240004080B400AF044B1B78F4
:40154000DBB203F00703DBB21846BD4680BC70478240004080B584B000AF03460A46FB8013467B7100F0CEF80346FB7300F0A4F80346BB81FA88BB899A4200F08880464BE4
:401580001B78DBB203F00103FB72FB7B002B20D1BB89002B02D0FB88002B1AD1BB89002B0BD13E4AFB8813803D4A3D4B1B78DBB223F04003DBB2137069E0394A384B1B78DB
:4015C000DBB243F04003DBB21370344AFB8813805DE0FB7A002B33D0324B00221A70324B01221A70314B00221A70314A304B1B78DBB203F07F03DBB21370294B1B78DBB2BA
:4016000003F00803002B02D0FB88002B18D1294ABB891380234B07221A7000BF214B1B78DBB203F00103002BF8D11B4A1A4B1B78DBB223F00103DBB213701A4B00221A7055
:40164000154B1B78DBB203F00103002B13D0194AFB881380134A7B79002B01D0032300E00123137000BF0F4B1B78DBB203F00103002BF8D10BE0094AFB8813800649064B5A
:401680001B78DAB2FB7A1343DBB20B70FFE700BF1037BD4680BD00BFA14300400041004002410040014000401440004010400040084000400240004080B400AF034B1B88A2
:4016C0009BB21846BD4680BC704700BF0041004080B483B000AF0346FB710949084B1B78DBB25AB297F9073023F007035BB213435BB2DBB20B7000BF0C37BD4680BC704719
:401700000241004080B400AF044B1B78DBB203F00703DBB21846BD4680BC70470241004080B400AF094A094B1B78DBB243F00203DBB21370064A064B1B78DBB243F0020388
:40174000DBB2137000BFBD4680BC7047A2430040B243004080B483B000AF0346FB7101BE00BF0C37BD4680BC704700BF80B582B000AF0346FB80FB88054A127802FB03F3E0
:40178000184600F055F800BF0837BD4680BD00BFDC80FF1F80B584B000AF03463960FB710F4B1B68FB60FB791F2B02D90020FFF7D1FFFB7903F01F0310339B00FA681344DA
:4017C0001B68BB60FB7903F01F0310339B00FA6813443A681A60BB6818461037BD4680BD08ED00E080B582B000AF03460A46FB711346BB71BB79072B02D90020FFF7AAFF92
:40180000FB791F2B02D90020FFF7A4FFFB7903F01F0303F1604303F56443BA795201D2B21A7000BF0837BD4680BD00BF00000000142816D902B4012114381049097811F0DC
:40184000C001890904B40E4A515C04BC00BF00BF00BF8841FDD500BF00BF02BC704700BF00BF70F10400FCD570470B050709EFF3108072B6704780F31088704700480040A7
:401880006A180000014B1868704700BF4481FF1F0E4B70B51E460E4C0025E41AA410A54204D056F8253098470135F8E700F0B2FC084B094C1E46E41AA4100025A54204D0E0
:4018C00056F8253098470135F8E770BD2022000020220000202200002822000010B5431E0A44914204D011F8014B03F8014FF8E710BD03460244934202D003F8011BFAE77F
:40190000704700000EB400B54FF402719CB0ADF814106FF00041049107914FF6FF711DAB02900690084853F8042BADF81610006802A9019300F064F8029B00221A701CB09F
:401940005DF804EB03B070474481FF1F2DE9F0478E6882469E420C46914698463ED88A8912F4906F3AD02568096902236F1A656905EB450595FBF3F57B1C43449D4238BF8B
:401980001D4653050FD5294600F040FB064698B13A462169FFF7A2FFA38923F4906343F08003A38113E02A4600F08EFB064670B92169504600F0DEFA0C23CAF80030A38922
:4019C0004FF0FF3043F04003A381BDE8F08726613E44266046466561ED1BA560464528BF464649463246206800F0A8FAA36800209B1BA36023681E442660BDE8F087000043
:401A00002DE9F04F9DB003938B8980461C060D4616460DD50B695BB9402100F0F7FA2860286118B90C23C8F80030CDE040236B610023099320238DF82930DFF89CB13023E3
:401A40008DF82A3037463C4614F8013B1BB9B7EB060910D003E0252BF9D02746F3E74B46324629464046FFF771FF013000F0A780099B4B4409933B78002B00F0A08000230C
:401A80004FF0FF3204930793059206938DF853301A930126052221784E4800F041FA671C049B38B14B4A3C46801A06FA00F018430490EFE7D90644BF20228DF853201A074A
:401AC00044BF2B228DF8532022782A2A03D0079A00210A200BE0039A111D12680391002A10DA524243F00200079204900BE027463B780134303B092B03D800FB0232012118
:401B0000F5E701B107923B782E2B1ED17B782A2B0AD1039B02371A1D1B680392002BB8BF4FF0FF33059310E0002319460593781C0A2407463A780130303A092A03D804FB1C
:401B400001210123F5E703B1059103223978224800F0E6F940B14023CBEB000003FA00F0049B013718430490397806221B487E1C8DF8281000F0D4F988B1194B33B9039BB6
:401B8000073323F007030833039314E003AB00932A46144B04A94046AFF3008007E003AB00932A460F4B04A9404600F093F8B0F1FF3F824603D0099B5344099342E7AB8956
:401BC0005B0601D4099801E04FF0FF301DB0BDE8F08F00BFDE210000E4210000E8210000000000004D1900002DE9F04791461F460A698B6806469342B8BF1346C9F80030CB
:401C000091F843200C46DDF8208012B10133C9F800302368990642BFD9F800300233C9F80030256815F0060510D104F1190A07E00123524639463046C04701301AD0013531
:401C4000E368D9F800209B1A9D42F1DB94F843302268003318BF012392060FD5E118302081F843005A1C94F845102244023382F8431003E04FF0FF30BDE8F08704F143022A
:401C800039463046C0470130F4D02268D9F80050E36802F00602042A08BF5D1B2269A3680CBF25EAE57500259342C4BF9B1AED184FF000091A344D4509D0012322463946C9
:401CC0003046C0470130D5D009F10109F3E70020BDE8F0872DE9F04317460A7E85B06E2A984606460C460C9B01F1430E00F0AE8011D8632A22D009D8002A00F0BB80582AD8
:401D000040F0CA8081F84520834955E0642A1ED0692A1CD0C0E0732A00F0B08009D86F2A2ED0702A40F0B8800A6842F020020A603EE0752A24D0782A3AD0ADE01A6801F1EA
:401D40004205111D1960136884F84230A8E021681A6811F0800F02D0111D196008E011F0400F02F10401196002D0B2F9003000E01368002B3CDA2D225B4284F8432037E09C
:401D800021681A6811F0800F02D0111D196007E011F0400F02F10401196001D0138800E01368227E5C496F2A14BF0A2208221BE078225A4984F845202268186812F0800FE5
:401DC00000F104051D6003D1550601D5038800E00368D00744BF42F0200222601BB9226822F0200222601022002084F8430001E049490A226568002DA56008DB206820F0A3
:401E0000040020602BB9002D7DD175460CE0002B79D07546B3FBF2F002FB1033CB5C05F8013D03460028F5D1082A0BD12368DA0708D5236962689A42DEBF302305F8013CCD
:401E400005F1FF35C5EB0E0323612EE008681A6810F0800F496903D0101D1860136808E010F0400F02F104001860136801D0198000E0196000232361754616E01A68111DD3
:401E80001960156800216268284600F049F808B1401B6060636804E004F1420584F8422001232361002384F84330CDF800803B4603AA21463046FFF797FE013002D14FF02D
:401EC000FF3026E023692A4639463046C0470130F5D023689B0710D5002504F1190907E001234A4639463046C0470130E7D00135E368039A9B1A9D42F2DBE068039B9842B3
:401F0000B8BF184605E00B7804F1420584F842308AE705B0BDE8F083EF2100000022000010B5C9B202449042034605D01C7801308C42F8D1184610BD002010BD884210B551
:401F400001EB020301D8421E0BE09842FBD28118D21AD34204D013F8014D01F8014DF8E710BD994204D011F8014B02F8014FF8E710BD000038B50546002944D051F8043CF3
:401F80000C1F002BB8BFE41800F0D4F81E4A1368114613B96360146030E0A3420DD92268A018834201BF18685B681218226063600C6023E0A24203D813465A68002AF9D1CE
:401FC00018681918A1420BD12168014458188242196013D110685268014419605A600DE002D90C232B6009E021686018824201BF106852680918216062605C602846BDE813
:40200000384000F098B838BD8481FF1F70B5CD1C25F0030508350C2D38BF0C25002D064601DBA94202D90C23336046E000F082F8234B1C681A462146A1B10B685B1B0ED4C4
:402040000B2B03D90B60CC18CD501EE08C420BBF63684B681360636018BF0C4615E00C464968E9E7174C23681BB9304600F052F820602946304600F04DF8431C18D0C41C74
:4020800024F00304A0420DD12560304600F053F804F10B00231D20F00700C31A0ED05A42E25070BD211A304600F034F80130EBD10C233360304600F03EF8002070BD00BFDE
:4020C0008481FF1F8081FF1FF8B5074615460E4621B91146BDE8F840FFF798BF1AB9FFF749FF2846F8BD00F027F885420ED929463846FFF78BFF044650B131462A46FFF714
:40210000EDFB31463846FFF735FF01E03046F8BD2046F8BD38B5064C0023054608462360FEF772FA431C02D1236803B12B6038BD8C81FF1F7047704751F8040C0028BEBF0A
:40214000091851F8043CC0180438704700000000434F4D20506F7274204F70656E00000053616D706C653A20256C75206D560D0A00000000456D756C61746564204461746E
:40218000613A202578200D0A00000000035B00402443004040000000205100405000F05100401000000001400010001401400006801A0140800100400140000A004C014059
:4021C000000200500140200060520040840200480600001A01408C02004880004300232D302B2000686C4C00656667454647003031323334353637383941424344454600E1
:402200003031323334353637383961626364656600000000F8B500BFF8BC08BC9E4670474D000000F1060000F8B500BFF8BC08BC9E4670472900000048220000C880FF1F01
:402240008000000048000000000000009081FF1F01FF000000366E01C05D0000180000000000E02E000000000000000000000000000000000000000000000000000000007F
:4022800000000000DC210000000000000000000000000000000000000000000000000000000000000000000000000000000000000000000000000000000000000000000021
:4022C00000000000E480FF1F00000000000000000000000000000000000000000000000000000000000000000000000000000000000000000000000000000000000000005C
:40230000000000000000000000000000000000000000000000000000000000000000000000000000000000000000000000000000000000000000000000000000000000009D
:40234000000000000000000000000000000000000000000000000000000000000000000000000000000000000000000000000000000000000000000000000000000000005D
:40238000000000000000000000000000000000000000000000000000000000000000000000000000000000000000000000000000000000000000000000000000000000001D
:4023C00000000000000000000000000000000000000000000000000000000000000000000000000000000000000000000000000000000000000000000000000000000000DD
:020000040003F7
:0200000480007A
:4000000003650040040001400101014001030140010D014001150140681801403A190140101A0140471B01400244014002450140024601400147014002480140014901400B
:40004000014C01400A4D014002500140880F8A728B3839803F4059045F012001B401EC10EC100510060807AC08110A060C110D140E0E110C1371140C151016131740184097
:400080001B031E0C20202109220323D029DC2B222F20320F3440351F363037E038803A083B803E1040654104450E46CB480D49FF4AFF4BFF4EF04F44500C54015804590493
:4000C0005A045B045C115D115F0166C06A406B028544873189018B0E8C738E049208942A95679644987399679A0CA522A7D1A803AA44AE55B030B180B360B40FB507B64043
:40010000B718B802BA28BE41BF40C004C504C9FFCA07CBFFCC40CD20CEF0CF05D008D804D904DA04DC11DD01DF01E040E1A8E240E32003010524070109080A040B800D28DF
:400140000E010F081002112013201502184019A81A0C1D081E091F482002211423402620270128202C022F483314341035043620370139283B083E043F80404047014904B9
:400180004C024E044F0850025101551057405D815E085F20C0E1C2EEC413CAB2CCE6CE56D081D230D6F086028801920294019804A001B001B204B402BE14D418D804DB0445
:4001C000DC01DD10DF0100840108021003080504070409080A800B0A0C100D040F8010801140120C1308170219121A011B481C401E241F01224923042A162B0232513308D4
:4002000038283B4240444201430848014904530259105D026680670469086B1670947108720273088A948C208D408E109348981099089C209F14A041AD21B040B110C0671E
:40024000C27FC41FCA0FCC0FCE0FD00FD208D684D830EC107C01DE01B401EC084508D001A5082510C820B510A5081280750289028E80B508C408DE04E001E202EC0810027B
:400280001C020000808000004000000000000083FF180000F3080C0033000004CC0033400CA7001822040000001CB3A208100000041C00A14FBFB0001100004030200F9888
:4002C00040408C1F000208880000101034020100050C00E021FFFFFF62A0F0410C000000000002110404040411110001000000000000400200103010001010120000000092
:400300000000000000000000000000000000000000000100800040808000800000000000000B0B0000000000950018010000000000000000000000000000000000000000B8
:40034000000000000000000000000000000000000000000000000000000000000000000000000000000000000000000000000000000000000000000000000000000000007D
:40038000000000000000000000000000000000000000000000000000000000000000000000000000000000000000000000000000000000000000000000000000000000003D
:4003C00000000000000000000000000000000000000000000000000000000000000000000000000000000000000000000000000000000000000000000000000000000000FD
:4004000000000000000000000000000000000000000000000000000000000000000000000000000000000000000000000000000000000000000000000000000000000000BC
:0200000490006A
:0400000000004005B7
:0200000490105A
:04000000BC90ACAF55
:0200000490303A
:020000002E25AB
:0200000490402A
:4000000000000000000000000000000000000000000000000000000000000000000000000000000000000000000000000000000000000000000000000000000000000000C0
:400040000000000000000000000000000000000000000000000000000000000000000000000000000000000000000000000000000000000000000000000000000000000080
:400080000000000000000000000000000000000000000000000000000000000000000000000000000000000000000000000000000000000000000000000000000000000040
:4000C0000000000000000000000000000000000000000000000000000000000000000000000000000000000000000000000000000000000000000000000000000000000000
:0200000490501A
:0C00000000012E16106900012E233E8E18
:00000001FF