:400000000080002011000000550400005504000080B500AF024A034B1B68136000F024FABC760040FA46004010B5054C237833B9044B13B10448AFF300800123237010BD47
:400040004081FF1F00000000C0250000084B10B51BB108490848AFF300800848036803B910BD074B002BFBD0BDE81040184700BF000000004481FF1FC0250000C880FF1F48
:400080000000000080B500AF62B60221002000F07FFA00BF00F026FC0346002BFAD003222949012000F02AFC00BF012000F0AAFC0346002BF9D003222349012000F01EFC4C
:4000C000224B1B88B3F5807F13D0B3F5807F02DC802B07D025E0B3F5C07F11D0B3F5007F15D01EE0184B05225A70174B00229A7017E0154B00225A70134B05229A7010E0E4
:40010000114BFB225A70104B00229A7009E00E4B00225A700C4BFB229A700C4B00221A8000BF02F015F90346002B03D1064B01221A7002E0044B00221A70044B1B8801332E
:400140009AB2024B1A80AFE75C81FF1F6081FF1F80B582B000AF786039603A680021786802F025FA00BF0837BD4680BD80B584B000AFF860B9607A607A68B968F86802F08B
:400180000BFA00BF1037BD4680BD00BF80B584B000AFF860B9607A607A68B968F86802F0FBF900BF1037BD4680BD00BF80B483B000AF0346FB71FEE780B487B000AF7860E2
:4001C000396000233B6100237B6127E07B699B007A6813441B68BB60BB68FB73BB6823F0FF03BB6014E03B695B003A6813441B781A46BB68134419463B695B003A681344B7
:400200005B780B703B6901333B61FB7B013BFB73FB7B002BE7D17B6901337B617B690B2BD4D900BF1C37BD4680BC704780B582B000AF294B06221A70284B52221A70284BA0
:40024000284A1278D2B21A70274B4FF4E2621A80264B41F251221A800023FB7019237B6014E0FB785B00DAB2214B1B78DBB203F00103DBB21343DBB203F00303FB704FF4A3
:40028000F07002F0F1F87B68013B7B607B68002B02D0FB78032BE4D17B68002B02D10320FFF784FF134B4FF480721A80114B07221A70114B00221A70104B48221A700D4B6B
:4002C00000221A700E4B00221A700E4B02221A7000BF0837BD4680BD0043004000420040A14600400F01004922420040204200402542004004400040064000400840004004
:40030000094000400140004080B483B000AF0B4B1B78FB710A4AFB7903F00703DBB21370084AFB791B09DBB21370074B44221A7000BF0C37BD4680BC704700BFCF01004967
:400340006E5800406F5800407658004080B582B000AF72B62F4A2F4B1B78DBB243F00403DBB213700023FB7113E0FA7913465B0013445B00284A13443B603B681A683B6840
:400380009B889BB219461046FFF7E2FEFB790133FB71FB79072BE8D920492148FFF70CFF204A204B1B78DBB243F00203DBB213701D4A1D4B1B78DBB243F00203DBB2137080
:4003C0000A221A491A48FFF7E1FE082219491A48FFF7DCFE0A2219491948FFF7D7FE194A184B1B78DBB243F00803DBB21370164B60221A70FFF71AFF134BC0221A70FFF74F
:4004000083FF0E2211491248FFF7B0FE00BF0837BD4680BDE8460040C425000024260000F4250000035001401350014044260000F051004050260000125100405826000000
:40044000205100402243004000480040A0430040B043004080B500AF02F072F803461B680C2B00D1FEE7FEE780B586B000AF224B7B61224B3B61204B7B6135E03B691B687B
:40048000FB603B695B68BB603B699B683B6000237B600CE0FB681A68BB681A60BB680433BB60FB680433FB607B6804337B607A683B689A42EED13B69DB683B6000237B60B2
:4004C00008E0BB6800221A60BB680433BB607B6804337B607A683B689A42F2D13B6910333B617B69013B7B617B69002BC6D102F02DF8FFF7C7FDFEE701000000D0270000F4
:4005000080B582B000AF184B184A1A60184A184B1B6843F40073136000237B600FE07B68032B04D8134A7B6852F8233000E0124B12497A6841F822307B6801337B607B6870
:400540002F2BECD90E4B1B78DAB20E4B1A700E4B0A4A1A60FFF7FAFE0C4B00221A6000BF0837BD4680BD00BF0CED00E00004FA0514ED00E000000000550400000080FF1F48
:40058000BC760040C480FF1F08ED00E0C080FF1F80B582B000AF03460A46FB711346BB71094B1B78002B04D100F010F8064B01221A70BA79FB791146184600F0C5F800BFEF
:4005C0000837BD4680BD00BF6281FF1F80B582B000AF01F068FF0346FB714C4A4B4B1B78DBB243F00103DBB21370494A484B1B78DBB243F00103DBB21370464B01221A703B
:40060000454B02221A70454A444B1B78DBB203F07F03DBB21370002001F0C6FE404A404B1B78DBB223F00603DBB213703D4A3D4B1B78DBB223F02003DBB21370384A384B09
:400640001B78DBB243F00103DBB21370012001F0ABFE282001F0A8FE334A334B1B78DBB203F07F03DBB213702F4A2F4B1B78DBB223F04003DBB21370294A294B1B78DBB259
:4006800043F00203DBB21370022001F08DFE244A234B1B78DBB243F00403DBB21370234B00221A70224B00221A70FB79184601F0FEFE0721172001F0B3FE1E49172001F08C
:4006C00087FE0721182001F0ABFE1B49182001F07FFE0721152001F0A3FE1849152001F077FE0721002001F09BFE1549002001F06FFE07210C2001F093FE12490C2001F08A
:4007000067FE00BF0837BD4680BD00BFA5430040B54300409D60004009600040106000409443004012600040F85100408460004085600040BD100000450A0000B1100000E9
:40074000691000008514000080B584B000AF03460A46FB711346BB710023FB7306E0FB7B304A0121D154FB7B0133FB73FB7B002BF5D02D4AFB7913702C4B00221A702C4B91
:4007800000221A702B4B00221A702B4B00221A702A4B00221A702A4B00221A70294B00221A70294B4FF400021A60274B4FF080721A60254B4FF400121A60234B01221A604D
:4007C000BB79002B02D0012B09D011E01F4A1F4B1B78DBB223F00103DBB2137011E01B4A1A4B1B78DBB243F00103DBB2137008E0164A164B1B78DBB243F00103DBB2137086
:4008000000BF134B03221A70124B80221A70012001F02AFE104B04221A7000BF1037BD4680BD00BF0882FF1F7481FF1F8B81FF1F8A81FF1F8481FF1F8981FF1F7581FF1FAC
:40084000FD81FF1F6881FF1F00E100E00960004028600040086000401260004080B483B000AF0023FB7106E0FB79144A0121D154FB790133FB71FB79002BF5D0104B0022B0
:400880001A70104B00221A700F4B00221A700F4B00221A700E4B00221A700E4B00221A700D4B00221A700D4B03221A700C4B80221A7000BF0C37BD4680BC70470882FF1F63
:4008C0008B81FF1F8A81FF1F8481FF1F8981FF1F7581FF1FFD81FF1F6881FF1F286000400860004080B400AF034B1B78DBB21846BD4680BC704700BF8481FF1FB0B485B013
:4009000000AF03463960FB711346BB80FB79002B6DD0FB79082B6AD8B988FA79364813465B0013449B00034406331B889BB2C3F5007399420CD9FA792F4913465B00134438
:400940009B000B4406331B889BB2C3F50073BB802A4CF979BB881B0A9BB2D8B2FA79264D13465B0013449B002B4403331B78DBB20343DAB20B0123441A70204AFB79B98898
:40098000C9B21B01134401330A461A703B68002B13D00023FB810CE01948FB79FA8939680A4412781B01034408331A70FB890133FB81FA89BB889A42EED3FA790E4913464C
:4009C0005B0013449B000B44013300221A700B48F979FA79084C13465B0013449B00234405331B78DAB20B01034402331A7000BF1437BD46B0BC70478C81FF1FFC5F004083
:400A00007060004080B485B000AF0346FB710023FB73FB79002B0CD0FB79082B09D8084AFB791B01134402331B78DBB203F01003FB73FB7B18461437BD4680BC704700BF6F
:400A4000FC5F004080B582B000AF374B1B78BB71BB7903F01003002B62D00123FB7197F90630002B12DABB7903F00F03012B02D00023FB711CE000F061F82C4B1B78DBB2DE
:400A80005BB2002B14DA0023FB7111E0BB7903F04003002B02D000F095F809E0BB7903F02003002B02D000F0B3F801E00023FB71FB79002B34D01C4B1B78BB7197F90630E2
:400AC000002B2DDB1A4B1B78DAB21A4B1B78DBB21343BB71184ABB791370174B1B78DBB2BA799A421CD1114B1B78FB710E4B1B78DBB223F07F03BB71BB79002B0AD10A4B7D
:400B00000A4A1278D2B21A70074B1B78DBB203F00F03FB71054B1B78DBB2FA799A42E2D100BF0837BD4680BD286000407781FF1FF881FF1F7681FF1F2960004080B582B07C
:400B400000AF1D4B1B78FB711B4AFB7913701A4B1B78FB7197F90730002B03DA174AFB79137025E0022000F045FA154B1B78DBB203F06003202B08D0402B0BD0002B0ED1D9
:400B800000F086FC0346FB710CE001F097FC0346FB7107E001F0C2FB0346FB7102E00023FB7100BFFB79002B02D1044B03221A7000BF0837BD4680BD286000407781FF1FE3
:400BC0000060004080B500AF104B1B78DBB2062B19D801A252F823F0070C0000070C0000F50B0000070C0000FB0B0000070C0000010C000000F0F8F806E000F0A7F903E03C
:400C000000F0D2F900E000BF00BF80BD8B81FF1F80B500AF124B1B78DBB2062B1DD801A252F823F05B0C00005B0C0000410C00005B0C0000470C00005B0C00004D0C000018
:400C400000F0D8F80AE000F027F907E0032000F0D1F9044B03221A7000E000BF00BF80BD8B81FF1F7781FF1F80B483B000AF0023FB71294B1B78DBB29AB2284B1B889BB235
:400C800013449AB2254B1A8015E02549FB79254A52681278D2B2CA54224B5B680133214A5360FB790133FB711E4B1B889BB2013B9AB21C4B1A801B4B1B889BB2002B02D090
:400CC000FB79072BE1D9144B1B78DBB2082B02D0FB79002B0FD0144B1B78DBB283F07F03DB43DAB2104B1A70104B0F221A70104B02221A7005E00D4B02221A700C4B02220A
:400D00001A700C4AFB791370034AFB79137000BF0C37BD4680BC70476881FF1F6A81FF1F006000407881FF1FF881FF1F7781FF1F8B81FF1F7681FF1F80B582B000AF164B76
:400D40001B889BB2002B02D100F02EF81EE0134B02221A70124B00221A7000F06BF9114BDB79DBB29BB21B029AB20E4B9B79DBB29BB21343FB80084B1B889BB2FA889A425C
:400D800002D2054AFB881380FFF76EFF012318460837BD4680BD00BF7881FF1F8B81FF1FF881FF1F0060004080B400AF094B02221A70094B80221A70084B0F221A70084B99
:400DC00000221A70074B00221A7001231846BD4680BC70478B81FF1FF881FF1F7781FF1F6881FF1F7681FF1F80B500AFFFF73CFF00BF80BD80B500AF0A4B1B78DBB29AB228
:400E0000094B1B889BB213449AB2074B1A80074B00221A70012000F0EDF8054B03221A7000BF80BD6881FF1F6A81FF1F8B81FF1F7781FF1F80B582B000AF124B04221A707D
:400E4000114B80221A7000F0F5F8104BDB79DBB29BB21B029AB20D4B9B79DBB29BB21343FB800B4B1B889BB2FA889A4202D2084AFB881380074B0B221A700123184608375A
:400E8000BD4680BD8B81FF1FF881FF1F006000407881FF1F7781FF1F80B483B000AF0023BB71234B1B78DBB203F00F03DBB2023BFB71FB799AB21F4B1B889BB213449AB279
:400EC0001C4B1A8018E01C4B5B681C49BA798A5CD2B21A70184B5B680133174A5360BB790133BB71FB79013BFB71134B1B889BB2013B9AB2104B1A800F4B1B889BB2002BE5
:400F000002D0FB79002BDED10D4AFB7913700D4B1B78DBB283F07F03DB43DAB2094B1A70094B0B221A7000BF0C37BD4680BC7047296000406A81FF1F7881FF1F00600040C2
:400F40007681FF1FF881FF1F7781FF1F80B500AF054B00221A70012000F04CF8034B03221A7000BF80BD00BF8B81FF1F7781FF1F80B400AF084B06221A70084B06221A7095
:400F8000074B80221A70074B00221A7001231846BD4680BC704700BF8B81FF1F7781FF1FF881FF1F7681FF1F80B500AF0D4B1B78DBB2002B0AD00C4A0A4B1B78DBB263F013
:400FC0007F03DBB21370074B00221A70074B00221A70012000F00EF8054B03221A7000BF80BD00BF7581FF1F086000408B81FF1F7781FF1F80B483B000AF0346FB710B4B75
:401000009B68002B0CD0094B9B68FA791A70074B9B68074A128892B25A80044B00229A6000BF0C37BD4680BC704700BF7881FF1F6A81FF1F80B400AF094B00221A80094B6B
:401040009B68002B07D0074B9B6800221A70054B9B6800225A8000BFBD4680BC704700BF6A81FF1F7881FF1F80B400AF0D4B01221A700D4B9B7C0D4B1B7BDBB203F00303BC
:40108000012B08D0094BDB7BDBB283F07F03DB43DAB2064BDA73054B01225A7300BFBD4680BC70470B600040FC5F00408C81FF1F80B400AF00BFBD4680BC704780B500AFD6
:4010C000FFF7CCFB00BF80BD80B582B000AF0023FB71714B1B79BB716F4B1B78DBB25BB2002B6CDA6C4B5B78DBB2013B052B00F2BE8001A252F823F05B1100007511000019
:401100009F1100006F1200006F12000011110000614BDB78DBB2212B0CD100F0C7F85F4B1B889BB2002B00F0A480FFF705FE0346FB719EE0584BDB78DBB2222B40F0998059
:4011400000F0F2F8554B1B889BB2002B00F09180FFF7F2FD0346FB718BE000F02DF94F4B1B889BB2002B00F08680FFF7E5FD0346FB7180E0BB79002B7FD1474B9B78DBB245
:40118000002B7AD1454B01221A80BB79444A1344424A5360FFF7D0FD0346FB716DE0BB79002B6CD13D4B01221A80BB793D4A13443A4A5360FFF7C0FD0346FB715FE0364BFD
:4011C0005B78DBB20A2B10D00B2B3DD0092B00D05CE000F0F1F8314B1B889BB2002B50D0FFF728FE0346FB714BE0BB79002B4AD1294B9B78DBB2002B45D1BB79264AD278AE
:40120000D1B2274AD154BB79254AD35CDAB2BB792549CB5CDBB29A4204D2BB79224A0021D1540CE0BB79204AD35CDBB2012B06D9BB79BA791A498A5CD1B21B4AD154FFF745
:4012400097FE0346FB711EE0BB79002B1DD1124B9B78DBB2012B18D8BB790F4A9278D1B2104AD154FFF784FE0346FB710DE000BF0CE000BF0AE000BF08E000BF06E000BFAE
:4012800004E000BF02E000BF00E000BFFB7918460837BD4680BD00BF006000407881FF1F0482FF1F0882FF1F0082FF1F80B584B000AF194B1B78DBB2013BDBB2184600F0E5
:4012C00075FEF860154B1B79FB72FB7A0233DB00FA681344FB60FB685B68FB60FB7A104AD35CDBB2DB00FA681344FB60FB685B68FB60FB682033FB60FB685B687B607B68B8
:401300001B78DBB29AB2074B1A80064A7B68536000BF1037BD4680BD8481FF1F006000406C81FF1F7881FF1F80B584B000AF1E4B1B78DBB2013BDBB2184600F037FEF860FF
:401340001A4B1B79FB72FB7A0233DB00FA681344FB60FB685B68FB60FB7A154AD35CDBB2DB00FA681344FB60FB685B68FB60FB681833FB60FB685B687B607B6801331B7839
:40138000DBB29BB21B029AB27B681B78DBB29BB213439AB2074B1A807B680233054A536000BF1037BD4680BD8481FF1F006000406C81FF1F7881FF1F80B584B000AF2D4B37
:4013C00000221A802C4B1B78DBB2013BDBB2184600F0ECFDF860294BDB78FB72274B1B79BB72BB7A0233DB00FA681344FB60FB685B68FB60BB7A002B38D1BB7A204AD35CCA
:40140000DBB2DB00FA681344FB60FB685B68FB60FB7A002B2AD0FB7A032B27D8FB7A03F10053013BDB00FA681344FB60134B9B78FB72FB681B78FA7A9A4217D8FB685B6853
:401440007B60FA7A13465B0013449B001A467B6813447B607B685B68064A53607B681A88044B1A807B689B68024A936000BF1037BD4680BD7881FF1F8481FF1F00600040A6
:401480006C81FF1F80B500AF00F072FF00BF80BD80B586B000AF0023FB75A74B1B78FB7100233B61A54B00221A8097F90730002B80F2EC80A04B5B78DBB20A2B00F2008213
:4014C00001A252F823F000BFE3150000C1180000C1180000C1180000C1180000C1180000F5140000C118000057160000C11800006D160000904BDB78DBB2012B0ED100F097
:401500007DFDB860BB685B688C4A53608B4B12221A80FFF711FC0346FB75D3E1864BDB78DBB2022B25D1844B9B78DBB2184600F03DFDB860BB68002B00F0C481BB685B684A
:401540007E4A53607D4B5B6803331B78DBB29BB21B029AB2794B5B6802331B78DBB29BB213439AB2754B1A80FFF7E6FB0346FB75A8E1714BDB78DBB2032B2DD10023FB73C2
:401580006F4B3B6109E03B691B78BB71BB793A6913443B61FB7B0133FB73674B9B78DBB2FA7B9A4204D23B691B78DBB2002BEAD13B691B78DBB2002B00F084813B691B7869
:4015C000DBB29AB25D4B1A805C4A3B695360FFF7B3FB0346FB7575E100F070FF0346FB7570E1FB7903F00303002B20D0022B00D030E0524B02221A804F4B1B79DBB203F019
:401600007F02504913465B0013449B000B4402331B78DAB24C4B1A704B4B00225A70474B494A5A60FFF788FB0346FB7512E0434B02221A80454B1B78DAB2434B1A70424B01
:4016400000225A703D4B404A5A60FFF775FB0346FB7500BF3DE1394B01221A80374B3C4A5A60FFF769FB0346FB7532E1334B01221A80314B1B79DBB21A46364B13442F4A04
:401680005360FFF759FB0346FB7522E12A4B5B78DBB2013B0A2B00F2178101A252F823F0A5170000C918000033180000C9180000CD160000C9180000C9180000C918000052
:4016C000E1160000C9180000611700001A4B9B78DAB2214B1A70FFF74BFC0346FB75F8E0154B9B787B717B79002B06D07B79013BDBB2184600F05AFCB8607B79002B02D014
:40170000BB68002B03D17B79002B40F0DF80104B1B78DBB27A799A4208D00D4A7B7913700E4B01221A70012000F082F9FFF720FC0346FB75CAE000BF006000407881FF1F6C
:401740009C2600008C81FF1F6481FF1FFD81FF1F8481FF1F6C81FF1F7581FF1F8A81FF1F00F0A4FD0346002B00F0B2805B4B1B793B715A4B1B79DAB2594B1A703B79594A1B
:40178000D35CDAB23B795849CB5CDBB29A4204D0564B01221A7000F0DBFAFFF7E9FB0346FB7595E0FB7903F00303012B20D0012B0CD3022B00D03BE0484B9B78DBB2002B90
:4017C00031D100F0C7FC0346FB752CE0434B9B78DBB2012B29D1464B1B78DBB223F00203DAB2434B1A70FFF7C3FB0346FB751CE03A4B1B79DBB2002B19D1384B9B78DBB267
:40180000DB43DBB2354A1279D2B211461046394A125CD2B21340DAB2364B5A54FFF7A8FB0346FB7503E000BF53E000BF51E000BF4FE0FB7903F00303012B20D0012B0CD3A6
:40184000022B00D03BE0254B9B78DBB2002B31D100F00CFC0346FB752CE0204B9B78DBB2012B29D1224B1B78DBB243F00203DAB21F4B1A70FFF77CFB0346FB751CE0174B5C
:401880001B79DBB2002B19D1144B9B78DBB2DB43DBB2124A1279D2B211461046154A125CD2B21340DAB2134B5A54FFF761FB0346FB7503E000BF0CE000BF0AE000BF08E00B
:4018C00000BF06E000BF04E000BF02E000BF00E000BFFB7D18461837BD4680BD006000408981FF1F8881FF1F6C81FF1F8A81FF1FFD81FF1FFC81FF1F90B482B000AF012399
:40190000FB7180E0464AFB791B0113440C221A70FA79444913465B0013449B000B4405331B78DBB2002B1CD0FA793E4913465B0013449B000B4404331B78DBB25BB2002BCA
:4019400007DA394AFB791B01134402330C221A700EE0354AFB791B011344023308221A7006E0314AFB791B011344023380221A702B48F979FA792B4C13465B0013449B00D4
:40198000234406331B889BB2DAB20B01034406331A702348F979FA79224C13465B0013449B00234406331B889BB21B0A9BB2DAB20B01034407331A701948F979FA79194C41
:4019C00013465B0013449B00234406331B889BB2DAB20B01034404331A701148F979FA79104C13465B0013449B00234406331B889BB21B0A9BB2DAB20B01034405331A702E
:401A0000FB790133FB71FB79082B7FF67BAF074BFF221A7000BF0837BD4690BC704700BF706000408C81FF1FFC5F00400A60004080B588B000AF0346FB7100237B830023F7
:401A4000FB7747E0FA7FA94913465B0013449B000B4400221A70FA7FA44913465B0013449B000B44023300221A70FA7F9F4913465B0013449B000B44033300221A70FA7FD4
:401A80009A4913465B0013449B000B44083300221A80FA7F954913465B0013449B000B440A3300221A70FA7F904913465B0013449B000B44013300221A70FA7F8B49134655
:401AC0005B0013449B000B44053300221A70FB7F0133FB77FB7F082BB4D9FB79002B10D000237B770AE07B7F814A0021D1547B7F804A0021D1547B7F01337B777B7F002B34
:401B0000F1D07D4B1B78DBB2002B00F01A817A4B1B78DBB2013BDBB2184600F047FA38613B695B68FB60FB6807331B7803F04003002B08D0714B1B78DBB243F00103DAB2A6
:401B40006E4B1A7007E06D4B1B78DBB223F00103DAB26A4B1A703B6908333B613B691B78FB7701237B7794E03B695B687B610023BB7786E07A7F7B699B7803F07F039A4294
:401B800079D17A7F594913465B0013449B000B4408331B889AB27B699B889A420BD27A7F7B699888514913465B0013449B000B44083302461A807B691B781A464C4B9B5C53
:401BC000DAB27B695B789A4255D17A7F7B699878464913465B0013449B000B44043302461A707A7F7B69D878404913465B0013449B000B4402461A707B69DB7803F0030379
:401C0000FB727B699B785BB2002B1ADA7A7FFB7A012B01D1072000E00D20344913465B0013449B000B44053302461A707A7F2F4913465B0013449B000B44013301221A70B1
:401C400019E07A7FFB7A012B01D1052000E00920264913465B0013449B000B44053302461A707A7F214913465B0013449B000B44013300221A707B6908337B61BB7F0133C2
:401C8000BB77BA7FFB7F9A42FFF474AF7B7F01337B777B7F082B7FF667AF3B695B687B6100237B7714E07B699B7803F07F027B6918780E4913465B0013449B000B440A33C1
:401CC00002461A707B6908337B617B7F01337B777A7FFB7F9A42E6D300F0A2F90246084B1A6000237B830123FB7725E08C81FF1F6C81FF1F8881FF1F8481FF1FFD81FF1F77
:401D00007081FF1FFA7F114913465B0013449B000B4406337A8B1A80FA7F0C4913465B0013449B000B4408331B889AB27B8B13447B83FB7F0133FB77FB7F082BE2D9FFF72E
:401D4000DBFD00BF2037BD4680BD00BF8C81FF1F90B585B000AF8F4B1B78DBB2002B00F015818C4B1B78DBB2013BDBB2184600F01DF978607B6808337B607B681B78FB70A1
:401D80007B685B68BB60844B1B78BB700023FB73F7E0BB681B78BA789A4240F0EC80BB787E4AD35CDAB2BB685B789A4240F0E380BB689B7803F07F037B70BB68DB7803F0F3
:401DC00003033B707A78764913465B0013449B000B44033300221A707A78BB689878704913465B0013449B000B44043302461A707A78BB68D8786A4913465B0013449B0010
:401E00000B4402461A707A78BB689888644913465B0013449B000B44083302461A80BB689B785BB2002B1ADA7A783B78012B01D1072000E00D205A4913465B0013449B000B
:401E40000B44053302461A707A78554913465B0013449B000B44013301221A7019E07A783B78012B01D1052000E009204C4913465B0013449B000B44053302461A707A7853
:401E8000474913465B0013449B000B44013300221A70444A7B781B011344023301221A70404879787A783E4C13465B0013449B00234408331B889BB21B0A9BB2DAB20B01B0
:401EC00003441A70374879787A78354C13465B0013449B00234408331B889BB2DAB20B01034401331A70304879787A782C4C13465B0013449B00234406331B889BB2DAB2C4
:401F00000B01034406331A70274879787A78244C13465B0013449B00234406331B889BB21B0A9BB2DAB20B01034407331A701E4879787A781A4C13465B0013449B002344C2
:401F400006331B889BB2DAB20B01034404331A70154879787A78124C13465B0013449B00234406331B889BB21B0A9BB2DAB20B01034405331A70BB680833BB60FB7B01338E
:401F8000FB73FA7BFB789A42FFF403AF00BF1437BD4690BD8481FF1F8981FF1F6C81FF1F8C81FF1FFC5F00407060004080B485B000AF0346FB710F4B1B78DBB20E4ADB004A
:401FC00013445B68FB60FB681033FB60FB681B78FA799A4202D30023FB6005E0FB79DB00FA6813445B68FB60FB6818461437BD4680BC70477481FF1FA027000080B400AF09
:40200000054B1B78DBB2054ADB0013445B681846BD4680BC704700BF7481FF1FA027000080B584B000AF104B1B78DBB2013BDBB21846FFF7BBFFB860BB68002B0DD0BB682F
:402040005B681B79FB71FB790233DB00BA681344BB60BB685B68FB6001E00023FB60FB6818461037BD4680BD8481FF1F80B582B000AF0023FB71344B1B79DBB203F07F03C0
:40208000BB71BB79002B5AD0BB79082B57D8BA79B9792E480B465B000B449B00034402331B78DBB243F00103D8B2284913465B0013449B000B44023302461A70BA792349FB
:4020C00013465B0013449B000B44033300221A70BA79B9791D480B465B000B449B00034401331B78DBB243F00203D8B2174913465B0013449B000B44013302461A70BA79BE
:40210000124913465B0013449B000B4404331B78DBB25BB2002B07DA0D4ABB791B01134402338D221A7006E0094ABB791B011344023389221A70FEF71BFF0346FB71FB79F1
:4021400018460837BD4680BD006000408C81FF1FFC5F004080B582B000AF0023FB71504B1B79DBB203F07F03BB71BB79002B00F09280BB79082B00F28E80BA79B97949485C
:402180000B465B000B449B00034402331B78DBB223F00103D8B2434913465B0013449B000B44023302461A70BA793E4913465B0013449B000B44033300221A703A49BB797C
:4021C0003948BA79120102441278D2B202F07F02D2B21B010B441A70BA79B97931480B465B000B449B00034401331B78DBB223F00203D8B22B4913465B0013449B000B44BE
:40220000013302461A70BA79264913465B0013449B000B4404331B78DBB25BB2002B1BDABA79204913465B0013449B000B4401331B78DBB2012B07D11B4ABB791B01134488
:4022400002330C221A7022E0174ABB791B01134402330D221A701AE0BA79124913465B0013449B000B4401331B78DBB2012B07D10D4ABB791B011344023308221A7006E0D7
:40228000094ABB791B011344023309221A70FEF76FFE0346FB71FB7918460837BD4680BD006000408C81FF1FFC5F004080B584B000AF0023FB73154B1B79BB73144B1B78AF
:4022C000DBB2013BDBB21846FFF770FEB860BB685B681B79FB71BA7BFB799A4202D9BB7B012B0ED8BB7BBA7B0A498A5CD1B20A4AD154BB7B054A9278D1B2064AD1540123D5
:40230000FB73FB7B18461037BD4680BD006000408481FF1F6C81FF1F8881FF1F80B483B000AF0023FB71094B1B78DBB25BB2002B06DA064B5B78DBB2012B00D000E000BF62
:40234000FB7918460C37BD4680BC70470060004080B400AF054B1B78DBB203F004039B08DBB21846BD4680BC704700BF2151004080B400AF054B1B78DBB203F040039B0943
:40238000DBB21846BD4680BC704700BF8F45004080B483B000AF0346FB7101BE00BF0C37BD4680BC704700BF80B582B000AF0346FB80FB88054A127802FB03F3184600F0B1
:4023C00053F800BF0837BD4680BD00BFD480FF1F80B584B000AF03463960FB710F4B1B68FB60FB791F2B02D90020FFF7D1FFFB7903F01F0310339B00FA6813441B68BB6048
:40240000FB7903F01F0310339B00FA6813443A681A60BB6818461037BD4680BD08ED00E080B582B000AF03460A46FB711346BB71BB79072B02D90020FFF7AAFFFB791F2B25
:4024400002D90020FFF7A4FFFB7903F01F0303F1604303F56443BA795201D2B21A7000BF0837BD4680BD00BF142816D902B4012114381049097811F0C001890904B40E4AEB
:40248000515C04BC00BF00BF00BF8841FDD500BF00BF02BC704700BF00BF70F10400FCD570470B050709EFF3108072B6704780F31088704700480040A224000080B582B091
:4024C00000AF0023BB711B4B1B78DBB203F00303012B02D0022B04D012E0164B1B79FB7111E0144B1B79DBB203F07F02124913465B0013449B000B440A331B78FB7102E0BA
:402500000023FB7100BFFB79012B0ED80B4B1A68FB7913441B78032B04D1FEF7D5FD0346BB7102E00023BB7100BFBB7918460837BD4680BD006000408C81FF1F7081FF1F77
:40254000014B1868704700BF3C81FF1F0E4B70B51E460E4C0025E41AA410A54204D056F8253098470135F8E700F020F9084B094C1E46E41AA4100025A54204D056F825308F
:4025800098470135F8E770BDB8270000B8270000B8270000C027000010B5431E0A44914204D011F8014B03F8014FF8E710BD03460244934202D003F8011BFAE7704700002A
:4025C00000000000005100401000305100404000C0510040100000000140001000140140000800400140000A004C01400002005001402000014500400252004001170140EC
:4026000001190140024001400141014001420140014301400247014002480140014C0140015101407E0214047C40EE08EE083380CC10A780A780A7800808C208AF80EE10AF
:40264000AC0800024000000000000000C0000000000B0B00000000000400000400000000000000001201000200000008B40411E0000001020001000009022200010100800D
:402680000A0904000001030000000921110100012232000705810308000A0000040309042C0343007900700072006500730073002000530065006D00690063006F006E00B2
:4026C00064007500630074006F0072001A0353007100750061007200650020004D006F007500730065000000320005010902A1010901A100050919012903150025019503DB
:402700007501810295017505810305010930093115802580750895028106C0C000000000040000001082FF1F0C82FF1F000000002027000000000000000000000000000097
:402740000000000001000000E8260000010000008A260000010000002C2700000000810308000300030000000100000078260000010000005C270000010000005427000014
:402780000000000064270000010000006426000000000000000000000100000068270000010000008827000043000000F8B500BFF8BC08BC9E4670474D00000001050000AE
:4027C000F8B500BFF8BC08BC9E46704729000000E0270000C880FF1F78000000D800000000000000006CDC0280BB0000300000000000C05D000000000000000000000000A2
:402800000000000000000000000000000000000000000000A827000000000000000000000000000000000000000000000000000000000000000000000000000000000000C9
:402840000000000000000000000000000000000000000000DC80FF1F00000000000000000000000000000000000000000000000000000000000000000000000000000000DE
:402880000000000000000000000000000000000000000000000000000000000000000000000000000000000000000000000000000000000000000000000000000000000018
:4028C00000000000000000000000000000000000000000000000000000000000000000000000000000000000000000000000000000000000000000000000000000000000D8
:402900000000000000000000000000000000000000000000000000000000000000000000000000000000000000000000000000000000000000000000000000000000000097
:402940000000000000000000000000000000000000000000000000000000000000000000000000000000000000000000000000000000000000000000000000000000000057
:0200000480007A
:0200000490006A
:0400000000004005B7
:0200000490105A
:04000000BC90ACAF55
:0200000490303A
:02000000C34DEE
:0200000490402A
:4000000000000000000000000000000000000000000000000000000000000000000000000000000000000000000000000000000000000000000000000000000000000000C0
:400040000000000000000000000000000000000000000000000000000000000000000000000000000000000000000000000000000000000000000000000000000000000080
:400080000000000000000000000000000000000000000000000000000000000000000000000000000000000000000000000000000000000000000000000000000000000040
:4000C0000000000000000000000000000000000000000000000000000000000000000000000000000000000000000000000000000000000000000000000000000000000000
:0200000490501A
:0C00000000012E16106900012E24D3B65A
:00000001FF